{
  "_format": "hh-sol-artifact-1",
  "contractName": "LoanPool",
  "sourceName": "contracts/Pool.sol",
  "abi": [
    {
      "inputs": [
        {
          "internalType": "uint256",
          "name": "goalAmount",
          "type": "uint256"
        },
        {
          "internalType": "uint256",
          "name": "interestRate",
          "type": "uint256"
        },
        {
          "internalType": "uint256",
          "name": "loanPeriod",
          "type": "uint256"
        },
        {
          "internalType": "string",
          "name": "_name",
          "type": "string"
        },
        {
          "internalType": "address",
          "name": "token",
          "type": "address"
        }
      ],
      "stateMutability": "nonpayable",
      "type": "constructor"
    },
    {
      "anonymous": false,
      "inputs": [
        {
          "indexed": true,
          "internalType": "address",
          "name": "poolAddress",
          "type": "address"
        },
        {
          "indexed": true,
          "internalType": "address",
          "name": "borrower",
          "type": "address"
        },
        {
          "indexed": false,
          "internalType": "uint256",
          "name": "amount",
          "type": "uint256"
        }
      ],
      "name": "Borrowed",
      "type": "event"
    },
    {
      "anonymous": false,
      "inputs": [
        {
          "indexed": true,
          "internalType": "address",
          "name": "poolAddress",
          "type": "address"
        },
        {
          "indexed": true,
          "internalType": "address",
          "name": "contributor",
          "type": "address"
        },
        {
          "indexed": false,
          "internalType": "uint256",
          "name": "amount",
          "type": "uint256"
        }
      ],
      "name": "ContributionAdded",
      "type": "event"
    },
    {
      "anonymous": false,
      "inputs": [
        {
          "indexed": true,
          "internalType": "address",
          "name": "poolAddress",
          "type": "address"
        }
      ],
      "name": "LoanRepaid",
      "type": "event"
    },
    {
      "inputs": [],
      "name": "HUSDX",
      "outputs": [
        {
          "internalType": "contract IERC20",
          "name": "",
          "type": "address"
        }
      ],
      "stateMutability": "view",
      "type": "function"
    },
    {
      "inputs": [
        {
          "internalType": "uint256",
          "name": "amount",
          "type": "uint256"
        }
      ],
      "name": "borrowLoan",
      "outputs": [],
      "stateMutability": "nonpayable",
      "type": "function"
    },
    {
      "inputs": [
        {
          "internalType": "uint256",
          "name": "amt",
          "type": "uint256"
        }
      ],
      "name": "contribute",
      "outputs": [],
      "stateMutability": "payable",
      "type": "function"
    },
    {
      "inputs": [],
      "name": "pool",
      "outputs": [
        {
          "internalType": "address",
          "name": "creator",
          "type": "address"
        },
        {
          "internalType": "uint256",
          "name": "goalAmount",
          "type": "uint256"
        },
        {
          "internalType": "uint256",
          "name": "interestRate",
          "type": "uint256"
        },
        {
          "internalType": "string",
          "name": "name",
          "type": "string"
        },
        {
          "internalType": "uint256",
          "name": "id",
          "type": "uint256"
        },
        {
          "internalType": "uint256",
          "name": "loanPeriod",
          "type": "uint256"
        },
        {
          "internalType": "uint256",
          "name": "totalContributions",
          "type": "uint256"
        },
        {
          "internalType": "uint256",
          "name": "startDate",
          "type": "uint256"
        },
        {
          "internalType": "uint256",
          "name": "endDate",
          "type": "uint256"
        },
        {
          "internalType": "bool",
          "name": "isOpen",
          "type": "bool"
        },
        {
          "internalType": "bool",
          "name": "isRepaid",
          "type": "bool"
        }
      ],
      "stateMutability": "view",
      "type": "function"
    },
    {
      "inputs": [],
      "name": "poolBalance",
      "outputs": [
        {
          "internalType": "uint256",
          "name": "",
          "type": "uint256"
        }
      ],
      "stateMutability": "view",
      "type": "function"
    },
    {
      "inputs": [
        {
          "internalType": "uint256",
          "name": "amt",
          "type": "uint256"
        },
        {
          "internalType": "address",
          "name": "contractID",
          "type": "address"
        }
      ],
      "name": "repayLoan",
      "outputs": [],
      "stateMutability": "payable",
      "type": "function"
    }
  ],
  "bytecode": "0x60806040523480156200001157600080fd5b506040516200101d3803806200101d8339810160408190526200003491620002ad565b600c80546001600160a01b0319166001600160a01b03831617905584620000b05760405162461bcd60e51b815260206004820152602560248201527f476f616c20616d6f756e74206d7573742062652067726561746572207468616e604482015264207a65726f60d81b60648201526084015b60405180910390fd5b60008411620001125760405162461bcd60e51b815260206004820152602760248201527f496e7465726573742072617465206d7573742062652067726561746572207468604482015266616e207a65726f60c81b6064820152608401620000a7565b60008311620001725760405162461bcd60e51b815260206004820152602560248201527f4c6f616e20706572696f64206d7573742062652067726561746572207468616e604482015264207a65726f60d81b6064820152608401620000a7565b600080546001600160a01b03191633179055600185905581516200019e906003906020850190620001d4565b50426007819055620001b2908490620003be565b600855505060029190915560055550600b805460ff1916600117905562000422565b828054620001e290620003e5565b90600052602060002090601f01602090048101928262000206576000855562000251565b82601f106200022157805160ff191683800117855562000251565b8280016001018555821562000251579182015b828111156200025157825182559160200191906001019062000234565b506200025f92915062000263565b5090565b5b808211156200025f576000815560010162000264565b634e487b7160e01b600052604160045260246000fd5b80516001600160a01b0381168114620002a857600080fd5b919050565b600080600080600060a08688031215620002c657600080fd5b8551602080880151604089015160608a01519398509096509450906001600160401b0380821115620002f757600080fd5b818901915089601f8301126200030c57600080fd5b8151818111156200032157620003216200027a565b604051601f8201601f19908116603f011681019083821181831017156200034c576200034c6200027a565b816040528281528c868487010111156200036557600080fd5b600093505b828410156200038957848401860151818501870152928501926200036a565b828411156200039b5760008684830101525b809750505050505050620003b26080870162000290565b90509295509295909350565b60008219821115620003e057634e487b7160e01b600052601160045260246000fd5b500190565b600181811c90821680620003fa57607f821691505b602082108114156200041c57634e487b7160e01b600052602260045260246000fd5b50919050565b610beb80620004326000396000f3fe6080604052600436106100655760003560e01c8063c1c1ba1211610043578063c1c1ba12146100d7578063c1cbbca7146100f7578063cc1451661461010a57600080fd5b806316f0115b1461006a578063918344d31461009f57806396365d44146100b4575b600080fd5b34801561007657600080fd5b5061007f610142565b6040516100969b9a99989796959493929190610a01565b60405180910390f35b6100b26100ad366004610abd565b610220565b005b3480156100c057600080fd5b506100c961051d565b604051908152602001610096565b3480156100e357600080fd5b506100b26100f2366004610af9565b61059e565b6100b2610105366004610af9565b6107e5565b34801561011657600080fd5b50600c5461012a906001600160a01b031681565b6040516001600160a01b039091168152602001610096565b60008054600154600254600380546001600160a01b0390941694929391929161016a90610b12565b80601f016020809104026020016040519081016040528092919081815260200182805461019690610b12565b80156101e35780601f106101b8576101008083540402835291602001916101e3565b820191906000526020600020905b8154815290600101906020018083116101c657829003601f168201915b50505060048401546005850154600686015460078701546008880154600b9098015496979396929550909350919060ff808216916101009004168b565b6000546001600160a01b031633146102955760405162461bcd60e51b815260206004820152602d60248201527f4f6e6c792074686520706f6f6c2063726561746f722063616e20706572666f7260448201526c36903a3434b99030b1ba34b7b760991b60648201526084015b60405180910390fd5b600b5460ff166102de5760405162461bcd60e51b81526020600482015260146024820152732a3432903837b7b61034b9903737ba1037b832b760611b604482015260640161028c565b6001600160a01b038116301461032d5760405162461bcd60e51b81526020600482015260146024820152732a3432903837b7b61034b9903737ba1037b832b760611b604482015260640161028c565b600b54610100900460ff16156103855760405162461bcd60e51b815260206004820181905260248201527f546865206c6f616e2068617320616c7265616479206265656e20726570616964604482015260640161028c565b600b805461ff001916610100179055600c54604051636eb1769f60e11b815233600482015230602482015283916001600160a01b03169063dd62ed3e9060440160206040518083038186803b1580156103dd57600080fd5b505afa1580156103f1573d6000803e3d6000fd5b505050506040513d601f19601f820116820180604052508101906104159190610b4d565b10156104635760405162461bcd60e51b815260206004820152601a60248201527f485553445820616c6c6f77616e636520697320746f6f206c6f77000000000000604482015260640161028c565b600c546040516323b872dd60e01b8152336004820152306024820152604481018490526001600160a01b03909116906323b872dd90606401602060405180830381600087803b1580156104b557600080fd5b505af11580156104c9573d6000803e3d6000fd5b505050506040513d601f19601f820116820180604052508101906104ed9190610b66565b5060405130907f314bd9beaed705e54938dcb29f8f4ccd8b4e9c766dd263b70acf7d5bd5f5da5590600090a25050565b600c546040516370a0823160e01b81523060048201526000916001600160a01b0316906370a082319060240160206040518083038186803b15801561056157600080fd5b505afa158015610575573d6000803e3d6000fd5b505050506040513d601f19601f820116820180604052508101906105999190610b4d565b905090565b600b5460ff166105fb5760405162461bcd60e51b815260206004820152602260248201527f54686520706f6f6c206973206e6f74206f70656e20666f7220626f72726f77696044820152616e6760f01b606482015260840161028c565b600b54610100900460ff16156106535760405162461bcd60e51b815260206004820181905260248201527f546865206c6f616e2068617320616c7265616479206265656e20726570616964604482015260640161028c565b6001548111156106b35760405162461bcd60e51b815260206004820152602560248201527f426f72726f77656420616d6f756e74206578636565647320746865206c6f616e6044820152640819dbd85b60da1b606482015260840161028c565b336000908152600a602052604090205460ff166107255760405162461bcd60e51b815260206004820152602a60248201527f4f6e6c7920706f6f6c20636f6e7472696275746f72732063616e20626f72726f6044820152693b903a3432903637b0b760b11b606482015260840161028c565b600c5460405163a9059cbb60e01b8152336004820152602481018390526001600160a01b039091169063a9059cbb90604401602060405180830381600087803b15801561077157600080fd5b505af1158015610785573d6000803e3d6000fd5b505050506040513d601f19601f820116820180604052508101906107a99190610b66565b50604051818152339030907f3fc499aeb0bb1cb58b6de8b02b3f86f4e7394e9690bef0110e32ced8a5631045906020015b60405180910390a350565b600b5460ff166108465760405162461bcd60e51b815260206004820152602660248201527f54686520706f6f6c206973206e6f74206f70656e20666f7220636f6e747269626044820152657574696f6e7360d01b606482015260840161028c565b600b54610100900460ff161561089e5760405162461bcd60e51b815260206004820181905260248201527f546865206c6f616e2068617320616c7265616479206265656e20726570616964604482015260640161028c565b33600090815260096020526040812080548392906108bd908490610b8f565b9091555050600680548291906000906108d7908490610b8f565b9091555050336000818152600a602052604090819020805460ff19166001179055600c5490516323b872dd60e01b81526004810192909252306024830152604482018390526001600160a01b0316906323b872dd90606401602060405180830381600087803b15801561094957600080fd5b505af115801561095d573d6000803e3d6000fd5b505050506040513d601f19601f820116820180604052508101906109819190610b66565b6109cd5760405162461bcd60e51b815260206004820152600f60248201527f5472616e73666572206661696c65640000000000000000000000000000000000604482015260640161028c565b604051348152339030907fcd384a6f1a58e5f331e7c0f316ec0d7253246d5d9888892fed2184ff3b081f2b906020016107da565b60006101606001600160a01b038e16835260208d818501528c60408501528160608501528b518083860152600092505b80831015610a50578c8301820151858401610180015291810191610a31565b80831115610a6357600061018082870101525b610180601f19601f83011686010193505050508860808301528760a08301528660c08301528560e083015284610100830152610aa461012083018515159052565b8215156101408301529c9b505050505050505050505050565b60008060408385031215610ad057600080fd5b8235915060208301356001600160a01b0381168114610aee57600080fd5b809150509250929050565b600060208284031215610b0b57600080fd5b5035919050565b600181811c90821680610b2657607f821691505b60208210811415610b4757634e487b7160e01b600052602260045260246000fd5b50919050565b600060208284031215610b5f57600080fd5b5051919050565b600060208284031215610b7857600080fd5b81518015158114610b8857600080fd5b9392505050565b60008219821115610bb057634e487b7160e01b600052601160045260246000fd5b50019056fea2646970667358221220b90428964efe1107afec770be88de5893773c98880a011ba091e9271d335c0e364736f6c63430008090033",
  "linkReferences": {},
  "deployedLinkReferences": {}
}